:100000000C9433030C9450030C9450030C94500341
:100010000C9450030C9450030C9450030C94500314
:100020000C9450030C9450030C9450030C94F60958
:100030000C9450030C9450030C9450030C945003F4
:100040000C9450030C9450030C9450030C945003E4
:100050000C9450030C9450030C9450030C945003D4
:100060000C9450030C9450036E616E00696E660030
:1000700000407A10F35A00A0724E18090010A5D45F
:10008000E80000E87648170000E40B54020000CABC
:100090009A3B000000E1F505000080969800000002
:1000A00040420F000000A086010000001027000061
:1000B0000000E803000000006400000000000A00E7
:1000C000000000000100000000002C76D888DC67EA
:1000D0004F0823DFC1DFAE59E1B1B796E5E3E45342
:1000E000C63AE651997696E8E6C28426EB898C9B5F
:1000F00062ED407C6FFCEFBC9C9F40F2BAA56FA5FF
:10010000F490055A2AF75C936B6CF9676DC11BFC80
:10011000E0E40D47FEF520E6B500D0ED902E03009B
:10012000943577050080841E080000204E0A0000E8
:1001300000C80C333333330F986E12831141EF8DA7
:100140002114893BE65516CFFEE6DB18D1844B38E7
:100150001BF77C1D901DA4BBE424203284725E2218
:100160008100C9F124ECA1E53D2700000000007CDE
:10017000DAF2DA7C7CD6F2D67C387C3E7C38183CCD
:100180007E3C1838EABEEA38387AFE7A3800183CE5
:100190001800FFE7C3E7FF0018241800FFE7DBE7BC
:1001A000FF0C125C607064949E946402FEA0A0E058
:1001B00002FEA0A4FC5A3CE73C5AFE7C38381010E2
:1001C00038387CFE2844FE4428FAFA00FAFA609097
:1001D000FE80FE006691A95606060606062945FF22
:1001E000452910207E201008047E04081010543881
:1001F000101038541010780808080830783078301B
:100200000C1C7C1C0C60707C706000000000000006
:1002100000FA000000E000E00028FE28FE28245438
:10022000FE5448C4C81026466C926A040A0010E0C6
:10023000C000003844820000824438005438FE3840
:100240005410107C101000010E0C00101010101033
:10025000000006060004081020407C8A92A27C0060
:1002600042FE02004E92929262848292B2CC182890
:1002700048FE08E4A2A2A29C3C5292928C828488FE
:1002800090E06C9292926C629292947800002800B6
:100290000000022C0000001028448228282828286A
:1002A000008244281040809A90607C82BA9A723E04
:1002B0004888483EFE9292926C7C82828244FE8202
:1002C00082827CFE92929282FE909090807C8282CA
:1002D0008ACEFE101010FE0082FE8200040282FC14
:1002E00080FE10284482FE02020202FE403840FED8
:1002F000FE201008FE7C8282827CFE909090607CC2
:10030000828A847AFE90989462649292924CC08021
:10031000FE80C0FC020202FCF8040204F8FC021C8D
:1003200002FCC6281028C6C0201E20C0869A92B2A1
:10033000C200FE828282402010080400828282FE77
:100340002040804020020202020200C0E0100004AF
:100350002A2A1E02FE1422221C1C222222141C22E3
:100360002214FE1C2A2A2A1800107E9040182525E7
:10037000391EFE1020201E0022BE0200040202BC14
:1003800000FE081422000082FE02003E201E201EF5
:100390003E1020201E1C2222221C3F182424181844
:1003A0002424183F3E10202010122A2A2A2420201C
:1003B000FC22243C0202043E38040204383C020CB5
:1003C000023C2214081422320909093E22262A324C
:1003D0002200106C82000000EE000000826C100011
:1003E00040804020403C64C4643C78858586485CFD
:1003F0000202045E1C2A2AAA9A84AAAA9E82842A3D
:100400002A1E8284AA2A1E02042AAA9E0230784A40
:100410004E489CAAAAAA9A9C2A2A2A9A9CAA2A2AC4
:100420001A0000A23E820040A2BE420080A23E020C
:100430000F9424940F0F14A4140F3E2AAAA20004B0
:100440002A2A3E2A3E5090FE924C9292924C4C1296
:1004500012124C4C5212120C5C8282845E5C42027C
:10046000041E00B90505BE9C2222229CBC02020289
:10047000BC3C24FF2424127E92C266D4F43FF4D400
:10048000FF90946F0403117E90C0042A2A9E82007C
:100490000022BE820C1212524C1C0202445E005E0C
:1004A00050504EBEB0988CBE649494F414649494EE
:1004B00094640C12B202041C1010101010101010D2
:1004C0001CF40813355DF408142C5F0000DE0000F6
:1004D000102854284444285428105500AA00555583
:1004E000AA55AA55AA55AA55AA000000FF00080857
:1004F00008FF00282828FF000808FF00FF08080F51
:10050000080F2828283F002828EF00FF0000FF00E0
:10051000FF28282F203F2828E808F80808F808F8BE
:10052000282828F8000808080F00000000F808082C
:100530000808F8080808080F08000000FF08080865
:10054000080808080808FF08000000FF280000FF4E
:1005500000FF0000F808E800003F202F2828E808E6
:10056000E828282F202F0000FF00EF28282828281F
:100570002828EF00EF282828E8280808F808F82895
:1005800028282F2808080F080F0000F808F8000096
:1005900000F8280000003F2800000F080F0808FF9F
:1005A00008FF282828FF28080808F8000000000F86
:1005B00008FFFFFFFFFF0F0F0F0F0FFFFFFF0000F0
:1005C000000000FFFFF0F0F0F0F01C22221C223EA1
:1005D00054547C287E40406060407E407E40C6AAE5
:1005E0009282C61C22223C20027E04780460407E57
:1005F000404099A5E7A5993854925438324E804E20
:10060000320C52B2B20C0C121E120C3D465A62BC95
:100610007C929292007E8080807E54545454542266
:1006200022FA2222028A5222020222528A02000066
:10063000FF80C00701FF00001010D6D6106C486C78
:10064000246C60F090F060000018180000000808AA
:10065000000C02FF808000F88080780098B8E8489D
:10066000003C3C3C3C0011241FBECFEFD8E0DEBF75
:10067000CDBF15E0A0E0B1E0E6E9F4E202C00590EC
:100680000D92A833B107D9F725E0A8E3B5E001C082
:100690001D92A138B207E1F70E94B3080C944912E9
:1006A0000C9400005C9827E030E090E05D98AC018D
:1006B000022E02C0559547950A94E2F740FF02C00A
:1006C0005E9A01C05E985D9A2150310978F70895CD
:1006D000569A559A549A539A529A5A985B982FE977
:1006E00086E891E0215080409040E1F700C0000092
:1006F0005B9A83EA0E94520380EA0E94520380ECD4
:100700000E94520380E40E9452038CE20E94520332
:1007100083ED90E30197F1F700C000008EE20E94A4
:10072000520383ED90E30197F1F700C000008FE2E0
:100730000E94520383EC99E00197F1F700C000009A
:1007400086E20E94520308955C9A27E030E090E030
:100750005D98AC01022E02C0559547950A94E2F7C8
:1007600040FF02C05E9A01C05E985D9A2150310937
:1007700078F70895CF93C82F81E80E9452038C2FF9
:100780008F730E945203CF910895CF92DF92EF9220
:10079000FF920F931F93CF93DF930F2EF4E0EF2E72
:1007A000F5E0FF2EF02DEC010F2EF4E1CF2EF5E059
:1007B000DF2EF02DF7018081F2E0EF0EF11C806B4F
:1007C0000E94520380E00E94520380E10E94520383
:1007D00080EE0E9452038FEF0E94A4038E01005806
:1007E0001F4F89910E94A403C017D107D1F7E801D8
:1007F000CE14DF04F9F6DF91CF911F910F91FF9096
:10080000EF90DF90CF90089520E034E0FC01A90143
:10081000119241505040E1F7089530E0F901EE0F98
:10082000FF1FEE0FFF1FE20FF31FE659FE4F55E0CB
:10083000560F9C0170E8479F200D311D11249491A3
:10084000D901A60FB11D9C936F5F31966513F7CF49
:1008500008956623F4F04830E0F4242F2695269579
:10086000269570E030E8239F600D711D1124FC0176
:10087000E60FF71F50E0409550954770552781E0EF
:1008800090E002C0880F991F4A95E2F79081892B6A
:1008900080830895242F269526952695E62FF0E04F
:1008A00030E8239FE00DF11D1124E80FF91F50E0FF
:1008B000409550954770552781E090E002C0880F21
:1008C000991F4A95E2F78095908189238083089546
:1008D000EF92FF920F931F93CF93DF937C01C62F6C
:1008E000D42F890110C04D2F6C2FC7010E940D0419
:1008F000CA5F8C2F90E006968038910514F0DF5F78
:10090000C0E0D83028F4F80121918F012111EBCFFC
:10091000DF91CF911F910F91FF90EF9008957F92FB
:100920008F929F92AF92BF92CF92DF92EF92FF92FF
:100930000F931F93CF93DF935C01802F90E0841B74
:1009400091096C0122F4CC24DD24C81AD90A822F23
:1009500090E0861B91094C0122F488249924881A7E
:10096000990A8C149D0434F4822F202F082F862F8F
:10097000642F482F261730F4842F402F082F862FFE
:10098000622F282F822F861B041B702E770C172DA9
:10099000181BC62FD42FE22EF12C9FEFE91AF90A6B
:1009A000062E000C770B6E157F0581F1081B000FDA
:1009B000112394F4170D8C149D043CF420E04C2F6B
:1009C0006D2FC5010E94290419C020E04D2F6C2F06
:1009D000C5010E94290412C0100FDF5F8C149D0412
:1009E0003CF420E04C2F6D2FC5010E94290406C065
:1009F00020E04D2F6C2FC5010E942904CF5F8C2F62
:100A00000C2E000C990B8E159F0591F6DF91CF915E
:100A10001F910F91FF90EF90DF90CF90BF90AF901C
:100A20009F908F907F9008958F929F92AF92BF92E8
:100A3000CF92DF92EF92FF920F931F93CF93DF93AA
:100A40006C01D62FF42E862F90E04C01820E911C63
:100A500088159905ACF01EC0CF2D2E2D4C2F6D2F73
:100A6000C6010E942904CF5F8C2F90E08017910768
:100A7000A4F3DF5F8D2F90E0881599053CF00AC044
:100A8000A42EB12CC501800F911D8C01A016B106BA
:100A90001CF3EFCFDF91CF911F910F91FF90EF905B
:100AA000DF90CF90BF90AF909F908F9008959F92CE
:100AB000AF92BF92CF92DF92EF92FF920F931F936C
:100AC000CF93DF937C01D62F942E862F90E05C018C
:100AD000A20EB11C8A159B05A4F01DC0C92D4C2F78
:100AE0006D2FC7010E944A04CF5F8C2F90E08017C2
:100AF0009107ACF3DF5F8D2F90E08A159B053CF0EA
:100B00000AC0C42ED12CC601800F911D8C01C016C5
:100B1000D10624F3EFCFDF91CF911F910F91FF907A
:100B2000EF90DF90CF90BF90AF909F9008959F92ED
:100B3000AF92BF92CF92DF92EF92FF920F931F93EB
:100B4000CF93DF936C01F62EC42F122F862F90E0E7
:100B50005C01A20EB11C8A159B05BCF4D62F99240A
:100B60009A94900E940E2E2D4C2F6D2FC6010E943C
:100B700029042E2D492D6D2FC6010E942904DF5F07
:100B80008D2F90E08A159B0574F38C2F90E05C010B
:100B9000A00EB11C8A159B05ACF4DFEFD10FDF0D61
:100BA0002E2D4C2F6F2DC6010E9429042E2D4C2F67
:100BB0006D2FC6010E942904CF5F8C2F90E08A150B
:100BC0009B0574F3DF91CF911F910F91FF90EF90F0
:100BD000DF90CF90BF90AF909F9008952F923F925B
:100BE0004F925F926F927F928F929F92AF92BF923D
:100BF000CF92DF92EF92FF920F931F93CF93DF93E9
:100C00007C01862E942ED22F722E7194770C11E0D7
:100C1000121BC62FC21BA62EB12C6501C20ED11C01
:100C20008C2F90E0C816D9060CF462C0202F492DF5
:100C30006C2FC7010E942904CF5F8C2F90E0C8164B
:100C4000D906A4F755C0612C112324F0D150739418
:100C50007394170D6394262C862D880F8F5F180FC1
:100C60005D2EC82DCD1B6501CD0ED11CD7FDDA94AC
:100C70008C2F90E0C816D906B4F0392C3618462CC3
:100C8000490C202F432D6C2FC7010E942904202FCF
:100C9000442D6C2FC7010E942904CF5F8C2F90E058
:100CA000C816D90674F7C82DC2196501C60CD11C27
:100CB00067FCDA948C2F90E0C816D906ACF0492C6A
:100CC0004518590C202F442D6C2FC7010E94290470
:100CD000202F452D6C2FC7010E942904CF5F8C2F38
:100CE00090E0C816D90674F7D6150CF0ADCF03C046
:100CF000DD230CF0A8CFDF91CF911F910F91FF90D2
:100D0000EF90DF90CF90BF90AF909F908F907F90AB
:100D10006F905F904F903F902F9008952F923F9249
:100D20004F925F926F927F928F929F92AF92BF92FB
:100D3000CF92DF92EF92FF920F931F93CF93DF93A7
:100D40008C01762E942ED22F822E8194880C81E0F5
:100D5000A82EA21AC62FC21BC62ED12C7601E20ED7
:100D6000F11C8C2F90E0E816F9060CF460C0492DB8
:100D70006C2FC8010E944A04CF5F8C2F90E0E816C8
:100D8000F906ACF754C00F2EF3E06F2EF02DB12C06
:100D9000AA2024F0D15083948394A80CB3942B2CD4
:100DA000A60C5D2EC72DCD1B7601ED0EF11CD7FDD7
:100DB000FA948C2F90E0E816F906A4F0392C3B1831
:100DC000492C4B0C432D6C2FC8010E944A04442D22
:100DD0006C2FC8010E944A04CF5F8C2F90E0E81668
:100DE000F90684F7C72DC2197601EB0CF11CB7FC8C
:100DF000FA948C2F90E0E816F9069CF0492C4518DF
:100E0000590C442D6C2FC8010E944A04452D6C2FAB
:100E1000C8010E944A04CF5F8C2F90E0E816F906C3
:100E200084F763946394DB150CF0B2CF03C0DD2329
:100E30000CF0A9CFDF91CF911F910F91FF90EF9010
:100E4000DF90CF90BF90AF909F908F907F906F90EA
:100E50005F904F903F902F900895CF93C82F8A3086
:100E600019F48DE00E942D07E0ECF0E0808185FF11
:100E7000FDCFC093C60080E090E0CF910895E0ECF4
:100E8000F0E080818823ECF78091C60090E008951F
:100E90001092C50087E68093C400E0ECF0E080810A
:100EA0008D7F808386E08093C20088E18093C100BB
:100EB000EBE7F5E086E295E09383828388E195E0B5
:100EC000918380830895EF920F93CF93DF93289AB5
:100ED0004091160550911705E0904A050AE022E07E
:100EE00061E084E091E00E94140540911405509166
:100EF0001505E0904A0522E06DE784E091E00E944C
:100F00001405E0904A0500E420E840E060E084E059
:100F100091E00E949705E0904A0502E020E440E05D
:100F200060E484E091E00E948F04E0904A0508E0CC
:100F300020E446E060E484E091E00E948F04E090C9
:100F40004A050EE020E44CE060E484E091E00E9479
:100F50008F04E0904A0504E120E442E160E484E08B
:100F600091E00E948F04E0904A050AE120E448E104
:100F700060E484E091E00E948F04E0904A0507E27B
:100F800020E445E260E484E091E00E948F04E09078
:100F90004A050DE220E44BE260E484E091E00E9427
:100FA0008F04E0904A0503E320E441E360E484E039
:100FB00091E00E948F04E0904A0509E320E447E3B2
:100FC00060E484E091E00E948F04E0904A050FE322
:100FD00020E44DE360E484E091E00E948F040E94ED
:100FE0003B1066E070E00E94810F9C012F5F3F4F35
:100FF00044E6429FC001439F900D112482519D4FB2
:10100000909389008093880010928500109284004C
:101010008091400590914105099730F480913E05FB
:1010200090913F05099740F01092410510924005BC
:1010300010923F0510923E05809140059091410528
:101040009F938F93C4E3D5E0DF93CF938FE595E033
:101050009F938F930E94751180913E0590913F055B
:101060009F938F93DF93CF938FE695E09F938F931A
:101070000E9475112FE535E040E062E384E091E0E5
:101080000E9468042FE635E040E06CE484E091E0E3
:101090000E946804EBE6F5E080E4808380E28183CF
:1010A0000E943B10817090782DB73EB7245F3F4F70
:1010B0000FB6F8943EBF0FBE2DBF992324F40197BD
:1010C0008E6F9F6F019680936D050E943B1081701B
:1010D0009078992324F401978E6F9F6F0196982F33
:1010E000EBE6F5E083838281811107C02FEF3FEFAC
:1010F000309347052093460506C021E030E0309349
:10110000470520934605911107C08FEF9FEF9093FD
:1011100045058093440506C081E090E09093450525
:1011200080934405EBE6F5E000914A0522E0418119
:10113000608184E091E00E94EE0584E091E00E94ED
:10114000C5032898DF91CF910F91EF9008953C98B7
:10115000ECE7F0E0808184608083EAE7F0E0808162
:101160008064808308950E944807579A5F988BB1E6
:101170008BB984B1856084B985B18A7F85B985B121
:1011800085B9219A2998ECE7F0E08081806480831A
:10119000EAE7F0E0808180688083808187608083D7
:1011A00080818F7D80830E9468038FEA0E945203B2
:1011B00088E10E94BA0384E091E00E94C5032FEF0A
:1011C00083ED90E3215080409040E1F700C00000A3
:1011D00084E091E00E9404040E946307E1E8F0E0EB
:1011E00080818D608083EFE6F0E080818260808383
:1011F0000E943B106AE070E00E94810F9C012F5F0B
:101200003F4F42E3429FC001439F900D1124825102
:101210009D4F9093890080938800109285001092D2
:10122000840078940F2EF8E76F2E712CF02DCBE40C
:10123000D5E00F2EFAE7CF2ED12CF02D0E94A70873
:10124000AFEAB4E01197F1F700C00000E0913A0571
:10125000F0913B05D3018D919C91EE0FFF1FE55B53
:10126000FA4F9183808380913A0590913B050997CD
:1012700050F480913A0590913B05019690933B057F
:1012800080933A0504C010923B0510923A05E8801D
:10129000F9800A811B81AC81BD81EE81FF81688567
:1012A00079852A853B854C855D858E859F85A888B7
:1012B000B9888A889B880E0D1F1D0A0F1B1F0E0FF1
:1012C0001F1F600F711F260F371F240F351F280F98
:1012D000391F2A0D3B1D280D391DADECBCEC0E94B9
:1012E000950F969587959695879596958795909362
:1012F0003905809338052091380530913905F6017C
:1013000080818F7B80833093490520934805E0904E
:101310004A0500E420E840E060E084E091E00E94BB
:101320009705E0904A0502E020E440E060E484E0B4
:1013300091E00E948F04E0904A0508E020E446E036
:1013400060E484E091E00E948F04E0904A050EE0A2
:1013500020E44CE060E484E091E00E948F04E0909F
:101360004A0504E120E442E160E484E091E00E9467
:101370008F04E0904A050AE120E448E160E484E05B
:1013800091E00E948F04E0904A0507E220E445E2E4
:1013900060E484E091E00E948F04E0904A050DE251
:1013A00020E44BE260E484E091E00E948F04E0904E
:1013B0004A0503E320E441E360E484E091E00E9415
:1013C0008F04E0904A0509E320E447E360E484E009
:1013D00091E00E948F04E0904A050FE320E44DE382
:1013E00060E484E091E00E948F0428CF1F920F9266
:1013F0000FB60F921124EF92FF920F931F932F932A
:101400003F934F935F936F937F938F939F93AF938C
:10141000BF93CF93DF93EF93FF9380913C0590911F
:101420003D05019729F410923D0510923C0529983D
:1014300000914A0510E0CBE6D5E04981042E000C6E
:10144000550B6881062E000C770B22E030E084E01B
:1014500091E00E948E068881853009F077C08091E6
:101460006C05082E000C990B20911605309117057C
:1014700082179307E0F02091160530911705275F3A
:101480003F4F2817390798F08091460590914705FE
:101490009195819591099093470580934605299AE6
:1014A00081E090E090933D0580933C054FC0809192
:1014B0003E0590913F05019690933F0580933E0530
:1014C0004091160550911705E0904A05F12C0AE06D
:1014D00010E022E030E061E070E084E091E00E9402
:1014E00057054091140550911505E0904A05F12CDF
:1014F00022E030E06DE770E084E091E00E94570563
:101500008BE190E090931705809316059093150555
:10151000809314050E94630700914A0510E0EBE6F2
:10152000F5E04181042E000C550B6081062E000C65
:10153000770B22E030E084E091E00E948E06299A49
:1015400081E090E090933D0580933C0580916B0590
:101550008A3709F09BC040911405509115050AE0A7
:1015600010E022E030E06DE770E084E091E00E945E
:101570005705CBE6D5E08981082E000C990B04971E
:10158000909315058093140540911405509115050D
:10159000E0904A0522E06DE784E091E00E941405A6
:1015A0008981082E000C990B2091140530911505A6
:1015B00082179307E0F02091140530911505275FFD
:1015C0003F4F2817390798F08091460590914705BD
:1015D0009195819591099093470580934605299AA5
:1015E00081E090E090933D0580933C054FC0809151
:1015F00040059091410501969093410580934005E7
:101600004091160550911705E0904A05F12C0AE02B
:1016100010E022E030E061E070E084E091E00E94C0
:1016200057054091140550911505E0904A05F12C9D
:1016300022E030E06DE770E084E091E00E94570521
:101640008BE190E090931705809316059093150514
:10165000809314050E94630700914A0510E0EBE6B1
:10166000F5E04181042E000C550B6081062E000C24
:10167000770B22E030E084E091E00E948E06299A08
:1016800081E090E090933D0580933C0580916C054E
:10169000833011F08C3391F480914405909145058D
:1016A0009195819591099093450580934405299AD8
:1016B00081E090E090933D0580933C058091460544
:1016C00090914705EBE6F5E09081890F808380914A
:1016D0004405909145059181890F818340911605BC
:1016E000509117050AE010E022E030E061E070E080
:1016F00084E091E00E94570580914805909149054A
:101700009C01275331402331310528F410924305C1
:101710001092420510C08A34914038F081E090E088
:10172000909343058093420506C08FEF9FEF9093FF
:1017300043058093420520914205309143058091F5
:10174000160590911705820F931F909317058093AC
:1017500016058091160590911705029730F481E0E7
:1017600090E090931705809316058091160590914F
:101770001705C59730F085E390E0909317058093A7
:1017800016054091160550911705E0904A050AE0AC
:1017900022E061E084E091E00E941405EBE6F5E0D0
:1017A00000914A0522E04181608184E091E00E943D
:1017B000EE052FE535E040E062E384E091E00E9431
:1017C00068042FE635E040E06CE484E091E00E949C
:1017D000680484E091E00E94C503FF91EF91DF91DE
:1017E000CF91BF91AF919F918F917F916F915F91B9
:1017F0004F913F912F911F910F91FF90EF900F907C
:101800000FBE0F901F901895A0E1B0E0EAE0FCE059
:101810000C94A40F7C011B016A01FC011782168243
:10182000838181FF44C39E012F5F3F4F3901F70140
:101830009381F10193FD859193FF81911F0188238D
:1018400009F431C3853239F493FD859193FF819179
:101850001F01853239F4B70190E00E943911560119
:101860006501E5CF10E0512C912CFFE1F915D8F07E
:101870008B3279F038F4803279F08332A1F4F92D8B
:10188000F0612EC08D3261F0803369F4292D216022
:101890002DC0392D3260932E892D8460982E2AC058
:1018A000E92DE86015C097FC2DC020ED280F2A30E7
:1018B00088F496FE06C03AE0139F200D1124122FE3
:1018C00019C08AE0589E200D1124522EE92DE062A5
:1018D0009E2E10C08E3231F496FCE5C2F92DF064D4
:1018E0009F2E08C08C3621F4292D2068922E02C02C
:1018F000883641F4F10193FD859193FF81911F0199
:101900008111B3CF9BEB980F933020F4992D906108
:10191000805E07C09BE9980F933008F066C1992D4F
:101920009F7E96FF16E09F73992E853619F490647A
:10193000992E08C0863621F4392F3068932E02C0C4
:101940001111115097FE07C01C3350F444244394E6
:10195000410E27E00BC0183038F027E017E005C033
:1019600027E09CE3492E02C0212F412C560184E040
:10197000A80EB11CF6016081718182819381042DD2
:10198000A3010E944B106C01F981FC87F0FF02C09B
:10199000F3FF06C091FC06C092FE06C000E205C03F
:1019A0000DE203C00BE201C000E08C858C7019F0E1
:1019B00001115AC29BC297FE10C04C0CFC85F4FF6B
:1019C00004C08A81813309F44A94141474F528E020
:1019D000241578F588E0482E2CC096FC2AC0812F6B
:1019E00090E08C159D059CF03CEFC3163FEFD306AD
:1019F00074F0892D8068982E0AC0E2E0F0E0EC0FC8
:101A0000FD1FE10FF11D8081803319F41150111178
:101A1000F4CF97FE0EC044244394410E812F90E0F2
:101A2000C816D9062CF41C1904C04424439401C0E0
:101A300010E097FE06C01C141D0434F4C601019684
:101A400005C085E090E002C081E090E001110196C0
:101A5000112331F0212F30E02F5F3F4F820F931F72
:101A6000252D30E08217930714F4581A01C0512C29
:101A7000892D897049F4552039F0B70180E290E052
:101A80000E9439115A94F7CF002329F0B701802F13
:101A900090E00E94391193FC09C0552039F0B7013C
:101AA00080E390E00E9439115A94F7CF97FE4CC022
:101AB0004601D7FE02C0812C912CC60188199909D4
:101AC000F301E80FF91FFE87ED879601241931090C
:101AD000388B2F87012F10E01195019511093FEFE9
:101AE0008316930629F4B7018EE290E00E94391123
:101AF000C814D9044CF08F8598898815990524F469
:101B0000ED85FE85818101C080E3F1E08F1A9108A7
:101B10002D853E852F5F3F4F3E872D87801691068E
:101B20002CF0B70190E00E943911D9CFC814D90424
:101B300041F49A81963320F4953319F43C8534FFAF
:101B400081E3B70190E04EC08A81813319F09C8512
:101B50009F7E9C87B70190E00E943911111105C04A
:101B600094FC18C085E690E017C0B7018EE290E0C3
:101B70000E9439111E5F82E001E0080FF301E80FB7
:101B8000F11D8081B70190E00E943911802F01136F
:101B9000F3CFE6CF85E490E0B7010E943911D7FC7E
:101BA00006C0C114D10441F4EC85E4FF05C0D19412
:101BB000C194D1088DE201C08BE2B70190E00E9490
:101BC000391180E32AE0C216D1042CF08F5FFAE0CD
:101BD000CF1AD108F7CFB70190E00E943911B701B1
:101BE000C601C0960E94391154C1833631F0833743
:101BF00079F0833509F056C020C0560132E0A30EBB
:101C0000B11CF6018081898301E010E0630112C0FC
:101C10005601F2E0AF0EB11CF601C080D18096FEF5
:101C200003C0612F70E002C06FEF7FEFC6010E941A
:101C30002E118C01F92DFF7714C0560122E0A20E5F
:101C4000B11CF601C080D18096FE03C0612F70E008
:101C500002C06FEF7FEFC6010E9423118C01F92DA6
:101C6000F0689F2EF3FD1AC0852D90E00817190724
:101C7000A8F4B70180E290E00E9439115A94F4CFA1
:101C8000F60197FC859197FE81916F01B70190E075
:101C90000E94391151105A94015011090115110572
:101CA00079F7F7C0843611F0893661F5560197FE51
:101CB00009C024E0A20EB11CF6016081718182810D
:101CC00093810AC0F2E0AF0EB11CF6016081718110
:101CD000072E000C880B990BF92DFF769F2E97FF8E
:101CE00009C090958095709561957F4F8F4F9F4F5C
:101CF000F0689F2E2AE030E0A3010E949711C82EC1
:101D0000C6183FC0092D853721F40F7E2AE030E048
:101D10001DC0097F8F3691F018F4883559F0C3C083
:101D2000803719F0883711F0BEC0006104FF09C088
:101D3000046007C094FE08C0066006C028E030E0DA
:101D400005C020E130E002C020E132E0560107FF8B
:101D500009C084E0A80EB11CF60160817181828106
:101D6000938108C0F2E0AF0EB11CF6016081718171
:101D700080E090E0A3010E949711C82EC6180F774B
:101D8000902E96FE0BC0092D0E7FC11650F494FEC6
:101D90000AC092FC08C0092D0E7E05C0DC2C092D5E
:101DA00003C0DC2C01C0D12E04FF0DC0FE01EC0DE0
:101DB000F11D8081803311F4097E09C002FF06C045
:101DC000D394D39404C0802F867809F0D39403FD74
:101DD00011C000FF06C01C2DD51480F4150D1D196F
:101DE0000DC0D51458F4B70180E290E00E9439117B
:101DF000D394F7CFD51410F45D1801C0512C04FF13
:101E000010C0B70180E390E00E94391102FF17C0B3
:101E100001FD03C088E790E002C088E590E0B701CB
:101E20000CC0802F867859F001FF02C08BE201C000
:101E300080E207FD8DE2B70190E00E943911C116E2
:101E400038F4B70180E390E00E9439111150F7CFC8
:101E5000CA94F301EC0DF11D8081B70190E00E945E
:101E60003911C110F5CF15C0F4E0F51560F584E027
:101E7000581A93FE1FC0011127C02C8523FF2AC0CA
:101E800008E610E0392D3071932EF801849181110C
:101E900024C0552009F4E4CCB70180E290E00E9410
:101EA00039115A94F6CFF7018681978126C08FEFBA
:101EB0009FEF23C0B70180E290E00E9439115A944D
:101EC0005110F8CFD8CF512CB701802F90E00E944D
:101ED0003911D3CF0CE610E0D5CF91108052B70165
:101EE00090E00E9439110F5F1F4FCFCF23E02515DF
:101EF00010F483E0BDCF512CC0CF6096E2E10C948A
:101F0000C00F97FB072E16F4009407D077FD09D079
:101F10000E94DB0F07FC05D03EF4909581959F4F02
:101F20000895709561957F4F0895A29FB001B39F6A
:101F3000C001A39F700D811D1124911DB29F700DD2
:101F4000811D1124911D08952F923F924F925F920F
:101F50006F927F928F929F92AF92BF92CF92DF92B9
:101F6000EF92FF920F931F93CF93DF93CDB7DEB71E
:101F7000CA1BDB0B0FB6F894DEBF0FBECDBF0994B2
:101F80002A88398848885F846E847D848C849B8409
:101F9000AA84B984C884DF80EE80FD800C811B8117
:101FA000AA81B981CE0FD11D0FB6F894DEBF0FBE46
:101FB000CDBFED010895AA1BBB1B51E107C0AA1FAD
:101FC000BB1FA617B70710F0A61BB70B881F991FDA
:101FD0005A95A9F780959095BC01CD0108958F92EF
:101FE0009F92AF92BF92CF92DF92EF92FF92CF93E8
:101FF000DF93EC01688179818A819B81611571058C
:102000008105910521F464E279ED8BE597E02DE1FE
:1020100033EF41E050E00E94F51149015A019B0164
:10202000AC01A7EAB1E40E9414126B017C01ACEE92
:10203000B4EFA50194010E942212DC01CB018C0DAA
:102040009D1DAE1DBF1DB7FF03C00197A109B0487C
:1020500088839983AA83BB839F77DF91CF91FF9079
:10206000EF90DF90CF90BF90AF909F908F900895AA
:102070000E94EF0F089580E091E00E94EF0F089515
:10208000A0E0B0E08093000190930101A0930201D1
:10209000B09303010895283008F027E03327DA01D0
:1020A000990F311D87FD916000966105710539F426
:1020B00032602E5F3D9330E32A95E1F708959F3F0C
:1020C00030F080387105610509F03C5F3C5F3D935D
:1020D000913008F08068911DDF93CF931F930F9389
:1020E000FF92EF92192F987F9695E92F96959695E6
:1020F000E90FFF27E653FF4F99273327EE24FF24EC
:10210000A701E70105900894079428F4360FE71E0D
:10211000F81E491F511D660F771F881F991F0694CF
:10212000A1F70590079428F4E70EF81E491F561FE3
:10213000C11D770F881F991F661F0694A1F7059090
:10214000079428F4F80E491F561FC71FD11D880F8A
:10215000991F661F771F0694A1F70590079420F436
:10216000490F561FC71FD81F990F661F771F881F5B
:102170000694A9F784911095177041F0D695C795EC
:1021800057954795F794E7941A95C1F7E0E7F0E083
:1021900068941590159135916591959105907FE220
:1021A0007395E118F10A430B560BC90BD009C0F720
:1021B000E10CF11E431F561FC91FD01D7EF4703362
:1021C00011F48A95E6CFE894015030F0080F0AF434
:1021D0000027021708F4202F2395022F7A3328F0C6
:1021E00079E37D932A95E9F710C07D932A9589F6C6
:1021F000069497956795379517951794E118F10A06
:10220000430B560BC90BD00998F023957E9173951B
:102210007A3308F070E37C932013B8F77E917061F5
:102220007D9330F0839571E37D9370E32A95E1F718
:102230001124EF90FF900F911F91CF91DF9199277B
:1022400087FD90950895FC01059061507040011044
:10225000D8F7809590958E0F9F1F0895FC016150CF
:10226000704001900110D8F7809590958E0F9F1FB8
:1022700008950F931F93CF93DF93FB01238121FDDB
:1022800003C08FEF9FEF2CC022FF16C046815781FD
:10229000248135814217530744F4A081B1819D0107
:1022A0002F5F3F4F318320838C93268137812F5FAF
:1022B0003F4F3783268314C08B01EC01FB01008460
:1022C000F185E02D0995892BE1F6D80116968D91BF
:1022D0009C911797019617969C938E931697CE0113
:1022E000DF91CF911F910F910895AEE0B0E0EBE741
:1022F000F1E10C94B20F0D891E8986E08C831A835C
:1023000009838FEF9FE79E838D83AE01475E5F4F0A
:102310006F89788DCE0101960E94040CEF81F885BB
:10232000E00FF11F10822E96E4E00C94CE0FFA011C
:10233000AA27283051F1203181F1E8946F936E7F04
:102340006E5F7F4F8F4F9F4FAF4FB1E03ED0B4E0F5
:102350003CD0670F781F891F9A1FA11D680F791F36
:102360008A1F911DA11D6A0F711D811D911DA11D47
:1023700020D009F468943F912AE0269F1124301957
:10238000305D3193DEF6CF010895462F4770405DF2
:102390004193B3E00FD0C9F7F6CF462F4F70405DA1
:1023A0004A3318F0495D31FD4052419302D0A9F7FC
:1023B000EACFB4E0A6959795879577956795BA95F6
:1023C000C9F700976105710508959B01AC010A2EBC
:1023D00006945795479537952795BA95C9F7620F93
:1023E000731F841F951FA01D0895052E97FB1EF4D3
:1023F00000940E940C1257FD07D00E94271207FC80
:1024000003D04EF40C940C125095409530952195C4
:102410003F4F4F4F5F4F0895909580957095619510
:102420007F4F8F4F9F4F08950E94950FA59F900D4E
:10243000B49F900DA49F800D911D11240895B7FFA6
:102440000C9414120E941412821B930B0895A1E2A3
:102450001A2EAA1BBB1BFD010DC0AA1FBB1FEE1F1E
:10246000FF1FA217B307E407F50720F0A21BB30B69
:10247000E40BF50B661F771F881F991F1A9469F7E5
:1024800060957095809590959B01AC01BD01CF0141
:062490000895F894FFCF4F
:10249600010000007F7F7F7F717F717F7F7F7F7F5D
:1024A6007E7F7A7B7F7F7F7F7F7F7F7F7F717F7F4E
:1024B600717F7F7F0000606060787F7F7F7F7F60B5
:1024C6006060606060707078783E3F1F1F0F070184
:1024D60000000000000000000000000000000000F6
:1024E60000000000000000000000000000000000E6
:1024F60000000000000000000000000000000000D6
:1025060000000000000000000000000000000000C5
:1025160000000000FFFFF0F0F0F0F0F0F0F0F0F057
:10252600F1F3F7FFFFFFF7F1F0F0F0F0F0F0F0F065
:10253600F0F0F0FF000000000000FFFFFFFFFF00CB
:102546000000000000000000000083FFFFFFFFFF07
:102556003C00010103030303030301010000000023
:102566000101010103030303030000010103030347
:10257600030303010000000000000101010303033F
:10258600030300000001010303030303010100002C
:1025960000000000E0FF03000103070F1E3E7FFF5F
:1025A600FFFF9F0F0F8FFFFFFF7F3E1E0F070301E9
:1025B60000013FFC000000000000FFFFFFFFFF1CC2
:1025C6001C1C1C1C1C1C1C3C78F8F8F8F1EFDFFFE7
:1025D6007FFFE1C18181818181C1E1F9FFFF7F1F19
:1025E600878080C0FFFFFFFFFF78F0E0C0C0C0C05B
:1025F600C0E0FFFFFFFF3F070000808080FFFFFF76
:10260600FFFF3C78F0E0C0C0C0C0E0F0FFFFFF7FF6
:102616001F0000000080E0F8FCFFFF3F1F1E3CF893
:10262600F0E0C08000C0E0F0F83C1E1F3FFFFFFC5A
:10263600F8E08000000000000000FFFFFFFFFF0041
:10264600000000000000000000000000FEFFFFFF89
:10265600FFBF8180808080808080808080808080B5
:1026660080000000FFFFFFFFFF00000000000000E9
:102676000000FFFFFFFFFFFF0000000000FFFFFF5D
:10268600FFFF00000000000000000000FFFFFFFF4A
:10269600FF00000000000000000080C0E07030185D
:1026A6000C0C0606060C0C18183060E0C080000002
:1026B600000000000000060E0E3EFEFEFEFEFE7E40
:1026C6000E0E060000000000000000000080E0F092
:1026D600F8FCFC7E3E1E0E0E0E060E0E0E1C387804
:1026E600E6060E1EFEFEFEFEFE0E0E0600000006AE
:1026F600060EFEFEFEFEFEFE0E0E06060EFEFEFE9C
:10270600FEFE7E0E0E06000000060E0EFEFEFEFE0D
:10271600FE1E0E0600000000000000000000000083
:1027260000000000000000000000010100000000A1
:102736000000000000000000000000000000000192
:10274600010100000000000001010000000000007F
:102756000000000000000000010101000000000070
:102766000000010100000000000000000000000061
:102776000000000000000000000000000000000053
:102786000000000000000000000000000000000043
:10279600000000000000FFFFCECECECE001F1F1FA0
:1027A60038381F1F1C383C1F0F00FFFF1C38381F0E
:1027B6001F07071F1F3B3B1F1F07071F1F3838FF39
:1027C600FFFF000F1F38381CFFFF000F1F1F3B3B8A
:1027D6001F1F070F1F1F3838FFFFFF00000000787C
:1027E600FCFCCECFC7C3181F1F03031F1F181E1FD5
:1027F6003F3B1B0118FFFF1818000F1F3B3B3B1FF9
:102806000F001F1F1C383C1F1F18383F1F07001FD3
:102816003F3B3B190000F0F07070707000F0F0F074
:102826000000F0F0000000F0F000F0F0F07070F042
:10283600E080C0E0F07030707000C0E0F07070E0D2
:10284600F0F000E0F0707070F0F000C0E0F0703072
:10285600707000C0E0F07070F0F0F00000000060F2
:1028660070703070F0E00000EEFEFCE0000070706A
:1028760030F0F0E000E0F0707000E0F070303070A2
:102886006000F0F0000000F0F00000F0F0F0607082
:1028960030B0F0E00300020001000000070006006F
:1028A600050004001B001B000000000100000000E2
:1028B60000003F07000000000002000000002D0796
:0828C600000000002564000081
:00000001FF
